:07061C002E000000000000A9
:0F0601008F80C2A1D2A2C2A27F027E000205CCCE
:05062300C2A002060167
:05062800D2A002060152
:10051A007F0F7E001205CC7F301206237F037E00F8
:10052A001205CC7F301206237F301206237F381241
:10053A0006237F081206237F011206237F0612066E
:0B054A00237F0F1206237F8002062390
:100588008B1C8A1D891EAB1CAA1DA91E1203B660EE
:1005980013051EE51E7002051D14F91203B6FF129D
:0505A800062880E2229C
:0F045F008F138E128D118C1012023F8E148F1579
:04046E008E088F095C
:10047200780A7C007D007BFF7A06791E7E007F056C
:10048200120390E4F50FE509450870057F30020676
:1004920028E5094508602AAE08AF097C007D0A12EA
:1004A20003FCED2430FFAE0F050F740A2EF8A607E9
:1004B200AE08AF097C007D0A1203FC8E088F09800A
:1004C200D0150FC3E50F64809480400E740A250F87
:0A04D200F8E6FF120628150F80E976
:0104DC0022FD
:1004DD0012045F7F1C120628E4F516AC14AD15E46A
:1004ED00120206A804A905AA06AB07AF13AE12ADFA
:1004FD0011AC10120006E4FBFA792078411200FBD2
:0C050D0012045F0516E516C3940340CFEE
:0105190022BF
:080555008B178A1889198D1A11
:10055D007F40120623E4F51BE51BC3951A5017AB1C
:10056D0017AA18A919851B827583001203CFFF12D4
:0B057D000628051B80E27F8002062399
:1005EA00040A1B041504001D05051F141417001125
:0705FA00040E1F0E041100A6
:1005AD0012051A7BFF7A0579EA7D18120555E4FFCD
:0F05BD001206287F011206287F0212062880FEF0
:1005CC00D3EF9400EE940040147D7A7C00ED1D7006
:0D05DC00011CED4C70F7EF1F70E61E80E370
:0105E90022EF
:100003000202ABE86480F8E933E83360110460F07E
:10001300ED33EC337009E8FCE9FDEAFEEBFF220463
:1000230060DED3EB9FEA9EE99DE8C2E78CF0C2F75E
:1000330095F0400CE8CCF8E9CDF9EACEFAEBCFFB2A
:1000430012027685D0F05804700320D5B3E804700B
:10005300075002B2D50202B592D5EC0460F7E4CCA6
:10006300C0E0C398F8603B94186008400DD0E0FBF3
:1000730002028DE4FBFAC9FC8028E830E406E4C9F7
:10008300FBE4CAFCE830E305E4C9CACBFCE8540747
:100093006010F8C3E913F9EA13FAEB13FBEC13FC52
:1000A300D8F130F52FC3E49CFCEF9BFFEE9AFEEDF5
:1000B30099FDD0E0FBEF4E4D4C701222DB030202A0
:1000C300B2EC2CFCEF33FFEE33FEED33FDED30E706
:1000D300EB02028DEF2BFFEE3AFEED39FDD0E0FB94
:1000E30050130BBB00030202B5ED13FDEE13FEEF3D
:0800F30013FFEC13FC02028D67
:1000FB00EC4D6011E8497017ED33EC3304600DE4FF
:10010B00FCFFFEFD22E933E8330470F80202AB1268
:10011B00027658046009E4CC248150062850090269
:10012B0002B52840030202B2C0E0EB4A7044B9802A
:10013B0006D0E0FB0202A1EF4E701CBD8008EBFF66
:10014B00EAFEE9FD80EBE98DF0A4FEE5F00201E4A7
:10015B00E9CDF9EAFEEBFFEF89F0A4FCE5F0CE89DF
:10016B00F0A42EFFE435F0CD89F0A42DFEE435F09C
:10017B008067EF4E7005BD80D780C3EF8BF0A4ACCA
:10018B00F0EE8BF0A42CFCE435F0F8EF8AF0A42C05
:10019B00E5F038FCE433CB8DF0A42CFCE5F03BF818
:1001AB00EE8AF0A42CFCE5F038F8E433CF89F0A408
:1001BB002CFCE5F038CF3400CE89F0A42FFFE5F00E
:1001CB003EFEE433C98DF0A42EFEE5F039CD8AF066
:1001DB00A42FFFE5F03EFEE43DFD33D0E0FB5007DE
:1001EB000BBB000F0202B5EC2CFCEF33FFEE33FE22
:0601FB00ED33FD02028D50
:1002010075F020800E75F010800575F0087D007E78
:10021100007F003392D530D503120451EC334010E6
:10022100EF33FFEE33FEED33FDEC33FCD5F0ED2281
:0E023100E5F0247EA2D513CC92E7CDCEFF22BD
:10023F00EDD2E7CD33EC3392D524814006E4FFFEB7
:10024F00FDFC22FCE4CFCECDCC24E0501174FF8016
:10025F00EDC3CC13CCCD13CDCE13CECF13CF0470B3
:07026F00F030D5DE0204515E
:10027600E9D2E7C933E833F892D5EDD2E7CD33ECCE
:0702860033FC5002B2D52247
:10028D00EC30E7100FBF000C0EBE00080DBD0004D2
:10029D000BEB6014A2D5EB13FCED92E7FD2274FF7E
:1002AD00FCFDFEFF22E480F8A2D574FF13FC7D80D7
:0302BD00E480EFEB
:03000000020610E5
:0C061000787FE4F6D8FD75811E0205AD70
:1002C000E709F608DFFA8046E709F208DFFA803E20
:1002D00088828C83E709F0A3DFFA8032E309F6080D
:1002E000DFFA8078E309F208DFFA807088828C8375
:1002F000E309F0A3DFFA806489828A83E0A3F60829
:10030000DFFA805889828A83E0A3F208DFFA804C02
:1003100080D280FA80C680D4806980F280338010D9
:1003200080A680EA809A80A880DA80E280CA803342
:1003300089828A83ECFAE493A3C8C582C8CCC583BA
:10034000CCF0A3C8C582C8CCC583CCDFE9DEE7808A
:100350000D89828A83E493A3F608DFF9ECFAA9F009
:10036000EDFB2289828A83ECFAE0A3C8C582C8CC5F
:10037000C583CCF0A3C8C582C8CCC583CCDFEADE78
:10038000E880DB89828A83E493A3F208DFF980CCDA
:1003900088F0EF60010E4E60C388F0ED2402B404D3
:1003A0000050B9F582EB2402B4040050AF2323457A
:0603B0008223900310738C
:1003B600BB010689828A83E0225002E722BBFE0245
:0903C600E32289828A83E4932278
:1003CF00BB010CE58229F582E5833AF583E02250E3
:1003DF0006E92582F8E622BBFE06E92582F8E2222D
:0D03EF00E58229F582E5833AF583E4932247
:1003FC00BC000BBE0029EF8DF084FFADF022E4CCE5
:10040C00F875F008EF2FFFEE33FEEC33FCEE9DECAD
:10041C00984005FCEE9DFE0FD5F0E9E4CEFD22EDF3
:10042C00F8F5F0EE8420D21CFEADF075F008EF2F3D
:10043C00FFED33FD4007985006D5F0F222C398FD2E
:05044C000FD5F0EA22CB
:0E045100C3E49FFFE49EFEE49DFDE49CFC22BC
:00000001FF
