:100579001204758F13120475EF70F5C200AF1312D0
:0405890004F880F101
:10058D000102030405060708090A0B0C0D0E0F10D6
:0905B100C2B3C2B2C2B1C2B02251
:0905BA00D2B7D2B6D2B5D2B422F8
:0905C300A2B582B482B682B7220F
:100475001205BA1205B11205C340FBC2B0D2B3D200
:10048500B2D2B11205C35004E4FD8031C2B1D2B37A
:10049500D2B2D2B01205C350047D018020C2B2D2BF
:1004A500B3D2B1D2B01205C350047D02800FC2B3DE
:1004B500D2B0D2B2D2B11205C350027D0320B4042A
:1004C500E4FE801320B5047E01800C20B6047E0274
:1004D500800520B7027E03ED25E025E0248DF58219
:1004E500E43405F583E5822EF582E43583F583E46E
:0204F50093FF73
:0104F70022E2
:0A05A700C0F9A4B0999282F8809880
:09059D00010EFF010FFF0110FF28
:100342008E118F127C037DE81201F774A72FF582BC
:1003520074053EF583E493550EF580C2A07F017EBD
:100362000012055BD2A0AE11AF127C007D641201B7
:10037200F77C007D0A1201F774A72DF58274053C03
:10038200F583E493550FF580C2A17F017E0012052B
:100392005BD2A1AE11AF127C007D0A1201F77C0084
:1003A2007D0A1201F774A72DF58274053CF583E4EA
:1003B200935510F580C2A27F017E0012055BD2A286
:1003C200AE11AF127C007D0A1201F774A72DF582DF
:1003D20074053CF583E493F580C2A3C2A37F017E3A
:0703E2000012055BD2A3220B
:08025A008F0B8E0A8D098C0840
:10026200E4FFFEFDFCAB0BAA0AA909A808120109CA
:100272004033E4FFFE7D207C41AB0BAA0AA909A80A
:1002820008120109501FE4FFFE7D7A7C44AB0BAAE1
:100292000AA909A8081200031201768E0C8F0D75A7
:1002A2000E7F020331E4FFFE7D207C41AB0BAA0AE4
:1002B200A909A8081201094032E4FFFE7DC87C4268
:1002C200AB0BAA0AA909A808120109501EE4FFFEF5
:1002D2007DC87C42AB0BAA0AA909A8081200031226
:1002E20001768E0C8F0D750F7F8044E4FFFE7DC872
:1002F2007C42AB0BAA0AA909A8081201094030E402
:10030200FFFE7D7A7C44AB0BAA0AA909A808120158
:1003120009501CE4FFFE7D207C41AB0BAA0AA9090F
:10032200A8081200031201768E0C8F0D75107FAF94
:0F0332000DAE0C1203427510FF750FFF750EFF15
:010341002299
:1004F8008F14E51475F00A849005A79320002B55F6
:100508000EF580C2A07F017E0012055BD2A0E51423
:1005180075F00A84E5F09005A793550FF580C2A100
:100528007F017E0012055BD2A1225510F580C2A280
:100538007F017E0012055BD2A2E51475F00A84E5FE
:10054800F09005A793F580C2A37F017E0012055B9A
:03055800D2A32209
:10055B00D3EF9400EE940040147D7A7C00ED1D7077
:0D056B00011CED4C70F7EF1F70E61E80E3E1
:010578002260
:10000300EC4D6011E8497017ED33EC3304600DE4F7
:10001300FCFFFEFD22E933E8330470F80201E2122B
:1000230001AD58046009E4CC24815006285009022C
:1000330001EC2840030201E9C0E0EB4A7044B980B7
:1000430006D0E0FB0201D8EF4E701CBD8008EBFF29
:10005300EAFEE9FD80EBE98DF0A4FEE5F00200EC99
:10006300E9CDF9EAFEEBFFEF89F0A4FCE5F0CE89D8
:10007300F0A42EFFE435F0CD89F0A42DFEE435F095
:100083008067EF4E7005BD80D780C3EF8BF0A4ACC3
:10009300F0EE8BF0A42CFCE435F0F8EF8AF0A42CFE
:1000A300E5F038FCE433CB8DF0A42CFCE5F03BF811
:1000B300EE8AF0A42CFCE5F038F8E433CF89F0A401
:1000C3002CFCE5F038CF3400CE89F0A42FFFE5F007
:1000D3003EFEE433C98DF0A42EFEE5F039CD8AF05F
:1000E300A42FFFE5F03EFEE43DFD33D0E0FB5007D7
:1000F3000BBB000F0201ECEC2CFCEF33FFEE33FEE5
:06010300ED33FD0201C412
:1001090074F8CC6480CCC86480C8F582046043C3A9
:10011900EB9FF5F0EA9E42F0E99D42F0E89C45F03C
:1001290060305018E5825FFFE582F42B5582FB5061
:10013900210ABA001D09B90019088016E5825BFB7E
:10014900E582F42F5582FF50090EBE00050DBD0052
:10015900010CC3EB9FF5F0EA9E42F0E99D42F0E8FD
:0D0169009C45F06007CC4820E701B3EC2274
:10017600EDD2E7CD33EC3392D524814006E4FFFE81
:10018600FDFC22FCE4CFCECDCC24E0501174FF80E0
:10019600EDC3CC13CCCD13CDCE13CECF13CF04707D
:0701A600F030D5DE02024C2F
:1001AD00E9D2E7C933E833F892D5EDD2E7CD33EC98
:0701BD0033FC5002B2D52211
:1001C400EC30E7100FBF000C0EBE00080DBD00049C
:1001D4000BEB6014A2D5EB13FCED92E7FD2274FF48
:1001E400FCFDFEFF22E480F8A2D574FF13FC7D80A1
:0301F400E480EFB5
:030000000203E90F
:0C03E900787FE4F6D8FD75812002043016
:1001F700BC000BBE0029EF8DF084FFADF022E4CCEC
:10020700F875F008EF2FFFEE33FEEC33FCEE9DECB4
:10021700984005FCEE9DFE0FD5F0E9E4CEFD22EDFA
:10022700F8F5F0EE8420D21CFEADF075F008EF2F44
:10023700FFED33FD4007985006D5F0F222C398FD35
:050247000FD5F0EA22D2
:0E024C00C3E49FFFE49EFEE49DFDE49CFC22C3
:1003F500020579E493A3F8E493A34003F68001F2A0
:1004050008DFF48029E493A3F85407240CC8C33308
:10041500C4540F4420C8834004F456800146F6DFD7
:10042500E4800B010204081020408090059DE47EC5
:10043500019360BCA3FF543F30E509541FFEE493CC
:10044500A360010ECF54C025E060A840B8E493A393
:10045500FAE493A3F8E493A3C8C582C8CAC583CABE
:10046500F0A3C8C582C8CAC583CADFE9DEE780BE76
:0105A6000054
:00000001FF
