:1002AB00000102030405060708090A0B0C0D0E0FCB
:040280000213000065
:0902C500C2B7C2B6C2B5C2B42230
:0902CE00D2B3D2B2D2B1D2B022F7
:0902D700A2B182B082B282B3220E
:100003001202CE1202C51202D75009AF0BAE0A126A
:1000130000A680F2C2B4D2B7D2B6D2B51202D7408C
:1000230005E4F50C8034C2B5D2B7D2B6D2B412020D
:10003300D74005750C018022C2B6D2B7D2B5D2B46F
:100043001202D74005750C028010C2B7D2B6D2B5E2
:10005300D2B41202D74003750C0320B005E4F50DAA
:10006300801620B105750D01800E20B205750D02B5
:10007300800620B303750D030514E5147002051300
:100083001202D750FBE50C25E025E024ABF582E412
:100093003402F583E582250DF582E43583F583E4A7
:0200A30093FFC9
:0100A5002238
:0802840002080000020A00005C
:10023C00C3E5149404E513940050301200037508C0
:10024C00008F09D3E5099409E50894005017AE0A0C
:10025C00AF0B7C007D0A1201D5E5092FF50BE508E3
:10026C003EF50A8006751300751404AF0BAE0A1226
:04027C0000A680BC9C
:0A02BB00C0F9A4B0999282F880986F
:09028C000110FF0111FF0112FF36
:1000A6008E0E8F0F7C037DE81201E774BB2FF5825D
:1000B60074023EF583E4935510F580C2A07F0112C9
:1000C6000296D2A0AE0EAF0F7C007D641201E77CD3
:1000D600007D0A1201E774BB2DF58274023CF5839C
:1000E600E4935511F580C2A17F01120296D2A1AE0A
:1000F6000EAF0F7C007D641201E77E007F0ACFCD34
:10010600CFCECCCE1201E774BB2FF58274023EF53A
:1001160083E4935512F580C2A27F01120296D2A201
:10012600AE0EAF0F7C007D0A1201E774BB2DF5827F
:1001360074023CF583E493F580C2A37F0112029614
:03014600D2A3221F
:10029600EF60031F80FAE4FFFE0FBF00010EBE03EE
:0402A600F8BFE8F5C0
:0102AA002231
:03000000020149B1
:0C014900787FE4F6D8FD75811402019067
:1001D500EF8DF0A4A8F0CF8CF0A428CE8DF0A42E3E
:0201E500FE22F8
:1001E700BC000BBE0029EF8DF084FFADF022E4CCFC
:1001F700F875F008EF2FFFEE33FEEC33FCEE9DECC5
:10020700984005FCEE9DFE0FD5F0E9E4CEFD22ED0A
:10021700F8F5F0EE8420D21CFEADF075F008EF2F54
:10022700FFED33FD4007985006D5F0F222C398FD45
:050237000FD5F0EA22E2
:1001550002023CE493A3F8E493A34003F68001F282
:1001650008DFF48029E493A3F85407240CC8C333AB
:10017500C4540F4420C8834004F456800146F6DF7A
:10018500E4800B0102040810204080900280E47E88
:10019500019360BCA3FF543F30E509541FFEE4936F
:1001A500A360010ECF54C025E060A840B8E493A336
:1001B500FAE493A3F8E493A3C8C582C8CAC583CA61
:1001C500F0A3C8C582C8CAC583CADFE9DEE780BE19
:010295000068
:00000001FF
