:0D009A008F80C2A1D2A2C2A27F0202007814
:0500BA00C2A002009A43
:0500BF00D2A002009A2E
:100003007F0F1200787F301200BA7F031200787FCF
:10001300301200BA7F301200BA7F381200BA7F085C
:100023001200BA7F011200BA7F061200BA7F0F12C4
:0700330000BA7F800200BA51
:10003A008B088A09890AAB08AA09A90A12005F6013
:10004A0013050AE50A7002050914F912005FFF1286
:05005A0000BF80E2225E
:10007800EF60107D7A7C00ED1D70011CED4C70F76F
:030088001F80EDE9
:01008B002252
:0700B30050726164697000E6
:0E008C001200037BFF7A0079B312003A80FE67
:030000000200A754
:0C00A700787FE4F6D8FD75810A02008C19
:10005F00BB010689828A83E0225002E722BBFE029F
:09006F00E32289828A83E49322D2
:00000001FF
