:0901AF007FD27E0412000380F7E8
:0A01A500C0F9A4B0999282F8809886
:09019B000108FF0109FF010AFF40
:100003008E0B8F0C7C037DE812013274A52FF582D1
:1000130074013EF583E4935508F580C2A07F011275
:100023000187D2A0AE0BAF0C7C007D641201327C41
:10003300007D0A12013274A52DF58274013CF5830B
:10004300E4935509F580C2A17F01120187D2A1AEC5
:100053000BAF0C7C007D641201327E007F0ACFCD92
:10006300CFCECCCE12013274A52FF58274013EF5AA
:1000730083E493550AF580C2A27F01120187D2A2BD
:10008300AE0BAF0C7C007D0A12013274A52DF582F4
:1000930074013CF583E493F580C2A37F01120187C9
:0300A300D2A322C3
:10018700EF60107D7A7C00ED1D70011CED4C70F75F
:030197001F80EDD9
:01019A002242
:030000000200A655
:0C00A600787FE4F6D8FD75810C0200EDB7
:10013200BC000BBE0029EF8DF084FFADF022E4CCB1
:10014200F875F008EF2FFFEE33FEEC33FCEE9DEC7A
:10015200984005FCEE9DFE0FD5F0E9E4CEFD22EDC0
:10016200F8F5F0EE8420D21CFEADF075F008EF2F0A
:10017200FFED33FD4007985006D5F0F222C398FDFB
:050182000FD5F0EA2298
:1000B2000201AFE493A3F8E493A34003F68001F2B4
:1000C20008DFF48029E493A3F85407240CC8C3334F
:1000D200C4540F4420C8834004F456800146F6DF1E
:1000E200E4800B010204081020408090019BE47E12
:1000F200019360BCA3FF543F30E509541FFEE49313
:10010200A360010ECF54C025E060A840B8E493A3D9
:10011200FAE493A3F8E493A3C8C582C8CAC583CA04
:10012200F0A3C8C582C8CAC583CADFE9DEE780BEBC
:0101A400005A
:00000001FF
