:1004C700D3EF9400EE940040217DFA7C00ED1D707F
:1004D700011CED4C70F77C007DE8ED1D70011CEDF3
:0A04E7004C70F7EF1F70D91E80D68D
:0104F10022E8
:0F054D008F80C2A1D2A2C2A27F027E000204C789
:05059800C2A002054DA8
:05059D00D2A002054D93
:100003007F021205987F381205987F061205987FA4
:0E0013000C1205987F011205987F8002059857
:100518008B0B8A0C890DAB0BAA0CA90D1200266057
:1005280013050DE50D7002050C14F9120026FF12D3
:05053800059D80E22298
:03056B00013A0052
:0300230002045C78
:10045C00C0E0C0D075D000C000C007309906D201F2
:10046C00C299802230981F85993AE53AB4240BD270
:10047C00007421253BF87600800AAF3B053B7421C4
:0F048C002FF8A63AC298D007D000D0D0D0E032D7
:0F055C00758920759850758DFDD28E75A89022E7
:08059000C2018F993001FD2228
:10049B008B0E8A0F8910AB0EAA0FA91012002660C3
:1004AB001A0510E5107002050F14F9120026FF1241
:0C04BB0005907F647E001204C780DB22E5
:10053D00000102030405060708090A0B0C0D0E0F36
:09057500C2B7C2B6C2B5C2B4227D
:09057E00D2B3D2B2D2B1D2B02244
:09058700A2B182B082B282B3225B
:1002700012057E12057512058740FBC2B4D2B7D2B3
:10028000B6D2B51205874004E4FD8031C2B5D2B7BD
:10029000D2B6D2B412058740047D018020C2B6D206
:1002A000B7D2B5D2B412058740047D02800FC2B721
:1002B000D2B6D2B5D2B412058740027D0320B00475
:1002C000E4FE801320B1047E01800C20B2047E0283
:1002D000800520B3027E0312058750FBED25E02543
:1002E000E0243DF582E43405F583E5822EF582E4D1
:0702F0003583F583E493FF61
:0102F70022E4
:1002F800656E746572207468652070617373776FBA
:10030800726400313A696E666F00323A4F4E0033BC
:100318003A4F464600656E746572207468652063BE
:10032800686F6963650073746174757300626F66E2
:0E0338006600696E666F006F6E006F6666008D
:06056E000114000115005C
:10039200750804E4F5091200037BFF7A0279F8126A
:1003A20005187FC01205981202708F14E514C394C9
:1003B200304007E514D3943940EDE50975F00AA4FD
:1003C2002430F509E50824C0FF1205987F2A12059A
:0403D2009D0508225B
:100346008B118A1289137F011205987F80120598F6
:100356007BFF7A03792E1205187FC01205983000AC
:1003660014E512451345117015FB7A007922120522
:1003760018C20080ECAB11AA12A913120518C2000C
:0C03860012058740FB120270EF70FA2293
:1004F20012055CC2007BFF7A03793512049B7B00F4
:100502007A0079201203467B007A00793012034682
:06051200C200E4F5212205
:1003D60012055C7BFF7A03793A12049B200033787E
:1003E600217C007D007BFF7A03793F1201C7EF6015
:1003F600117BFF7A03793F12049B7B007A007920F8
:1004060080067B007A007930120346C2001204F29D
:0304160080CA2277
:1004190012055C7BFF7A03793A12049B200033783A
:10042900217C007D007BFF7A0379421201C7EF60CE
:10043900117BFF7A03794212049B7B007A007920B1
:1004490080067B007A007930120346C2001204F25A
:0304590080CA2234
:030000000201E416
:0C01E400787FE4F6D8FD75813B02022B09
:10002600BB010689828A83E0225002E722BBFE02D8
:09003600E32289828A83E493220B
:10003F00E3F5F009E208B5F06D606B80F3E3F5F0DE
:10004F0009E608B5F060605E80F387F009E608B551
:10005F00F054605280F487F009E208B5F04860462A
:10006F0080F488828C8387F009E0A3B5F03860367E
:10007F0080F488828C8387F009E493A3B5F027601E
:10008F002580F388828C83E3F5F009E0A3B5F016A1
:10009F00601480F388828C83E3F5F009E493A3B5B1
:1000AF00F004600280F202016A808580E7808E8012
:1000BF00D2803C8015806C807E809B80B5808B8049
:1000CF00A1804F8070803A02018089828A83ECFA86
:1000DF00E493F5F0A3C8C582C8CCC583CCE493A341
:1000EF00C8C582C8CCC583CCB5F070606E80E1897D
:1000FF00828A83E493F5F0A3E208B5F05E605C803A
:10010F00F289828A83E0F5F0A3E608B5F04D604BE3
:10011F0080F389828A83E0F5F0A3E208B5F03C60B2
:10012F003A80F389828A83E493F5F0A3E608B5F069
:10013F002A602880F2805D89828A83ECFAE493F545
:10014F00F0A3C8C582C8CCC583CCE0A3C8C582C8FC
:10015F00CCC583CCB5F004600280E27F00F845F097
:10016F00600EE863F0806480D395F01F40027F013A
:10017F002289828A83ECFAE0F5F0A3C8C582C8CC45
:10018F00C583CCE0A3C8C582C8CCC583CCB5F0CBA2
:10019F0060C980E389828A83ECFAE0F5F0A3C8C5D1
:1001AF0082C8CCC583CCE493A3C8C582C8CCC58311
:1001BF00CCB5F0A760A580E288F0ED2402B404006E
:1001CF005099F582EB2402B40400508F232345820B
:0501DF00239000B8733D
:1001F000020392E493A3F8E493A34003F68001F290
:1002000008DFF48029E493A3F85407240CC8C3330F
:10021000C4540F4420C8834004F456800146F6DFDE
:10022000E4800B010204081020408090056BE47EFE
:10023000019360BCA3FF543F30E509541FFEE493D3
:10024000A360010ECF54C025E060A840B8E493A39A
:10025000FAE493A3F8E493A3C8C582C8CAC583CAC5
:10026000F0A3C8C582C8CAC583CADFE9DEE780BE7D
:010574000086
:00000001FF
