:10027900D3EF9400EE940040147D7B7C00ED1D705B
:0D028900011CED4C70F7EF1F70E61E80E3C6
:010296002245
:0502D100000000000028
:0F0297008F80C2A1D2A2C2A27F027E0002027992
:0502C700C2A002029735
:0502CC00D2A002029720
:10023E007F0F7E001202797F301202C77F037E008D
:10024E001202797F301202C77F301202C77F381236
:10025E0002C77F081202C77F011202C77F06120271
:0B026E00C77F0F1202C77F800202C78B
:0601EA008B108A1189123E
:1001F000E4F513F514AB10AA11A912851482851326
:10020000831200F96033AB10AA11A91285148285FC
:1002100013831200F960180514E514AE137002057B
:100220001314F5828E831200F9FF1202CC80D705D9
:0E02300014E51470C0051380BC7FC00202C725
:04017B008E088F0952
:10017F00780A7C007D007BFF7A0279D17E007F05B3
:10018F001200D3E4F50FE509450870057F30020230
:10019F00CCE5094508602AAE08AF097C007D0A123C
:1001AF000126ED2430FFAE0F050F740A2EF8A607B7
:1001BF00AE08AF097C007D0A1201268E088F0980D8
:1001CF00D0150FC3E50F64809480400E740A250F7D
:0A01DF00F8E6FF1202CC150F80E9CC
:0101E90022F3
:0702C00065736877617200AD
:0E02A60012023E7BFF7A0279C01201EA80FE4E
:030000000202B445
:0C02B400787FE4F6D8FD7581140202A6E4
:10000300E709F608DFFA8046E709F208DFFA803EDF
:1000130088828C83E709F0A3DFFA8032E309F608CC
:10002300DFFA8078E309F208DFFA807088828C8334
:10003300E309F0A3DFFA806489828A83E0A3F608E8
:10004300DFFA805889828A83E0A3F208DFFA804CC2
:1000530080D280FA80C680D4806980F28033801099
:1000630080A680EA809A80A880DA80E280CA803302
:1000730089828A83ECFAE493A3C8C582C8CCC5837A
:10008300CCF0A3C8C582C8CCC583CCDFE9DEE7804A
:100093000D89828A83E493A3F608DFF9ECFAA9F0C9
:1000A300EDFB2289828A83ECFAE0A3C8C582C8CC1F
:1000B300C583CCF0A3C8C582C8CCC583CCDFEADE38
:1000C300E880DB89828A83E493A3F208DFF980CC9A
:1000D30088F0EF60010E4E60C388F0ED2402B40493
:1000E3000050B9F582EB2402B4040050AF2323453A
:0600F3008223900053730C
:1000F900BB010CE58229F582E5833AF583E02250BC
:1001090006E92582F8E622BBFE06E92582F8E22205
:0D011900E58229F582E5833AF583E493221F
:10012600BC000BBE0029EF8DF084FFADF022E4CCBD
:10013600F875F008EF2FFFEE33FEEC33FCEE9DEC86
:10014600984005FCEE9DFE0FD5F0E9E4CEFD22EDCC
:10015600F8F5F0EE8420D21CFEADF075F008EF2F16
:10016600FFED33FD4007985006D5F0F222C398FD07
:050176000FD5F0EA22A4
:00000001FF
