:10023600D3EF9400EE940040147D7B7C00ED1D709E
:0D024600011CED4C70F7EF1F70E61E80E309
:010253002288
:05029900000000000060
:0F0266008F80C2A1D2A2C2A27F027E0002023606
:05028F00C2A00202669E
:05029400D2A002026689
:1001D6007F0F7E001202367F3012028F7F037E0071
:1001E6001202367F3012028F7F3012028F7F381252
:1001F600028F7F0812028F7F0112028F7F06120282
:0B0206008F7F0F12028F7F8002028F9B
:100211008B108A118912AB10AA11A9121200F96070
:10022100130512E5127002051114F91200F9FF12FB
:05023100029480E222AE
:040167008E088F0966
:10016B00780A7C007D007BFF7A0279997E007F05FF
:10017B001200D3E4F50FE509450870057F30020244
:10018B0094E5094508602AAE08AF097C007D0A1288
:10019B000112ED2430FFAE0F050F740A2EF8A607DF
:1001AB00AE08AF097C007D0A1201128E088F098000
:1001BB00D0150FC3E50F64809480400E740A250F91
:0A01CB00F8E6FF120294150F80E918
:0101D5002207
:1002540077656C636F6D6520746F20766563746F6A
:02026400720026
:0E0275001201D67BFF7A02795412021180FE2C
:0300000002028376
:0C028300787FE4F6D8FD75811202027548
:10000300E709F608DFFA8046E709F208DFFA803EDF
:1000130088828C83E709F0A3DFFA8032E309F608CC
:10002300DFFA8078E309F208DFFA807088828C8334
:10003300E309F0A3DFFA806489828A83E0A3F608E8
:10004300DFFA805889828A83E0A3F208DFFA804CC2
:1000530080D280FA80C680D4806980F28033801099
:1000630080A680EA809A80A880DA80E280CA803302
:1000730089828A83ECFAE493A3C8C582C8CCC5837A
:10008300CCF0A3C8C582C8CCC583CCDFE9DEE7804A
:100093000D89828A83E493A3F608DFF9ECFAA9F0C9
:1000A300EDFB2289828A83ECFAE0A3C8C582C8CC1F
:1000B300C583CCF0A3C8C582C8CCC583CCDFEADE38
:1000C300E880DB89828A83E493A3F208DFF980CC9A
:1000D30088F0EF60010E4E60C388F0ED2402B40493
:1000E3000050B9F582EB2402B4040050AF2323453A
:0600F3008223900053730C
:1000F900BB010689828A83E0225002E722BBFE0205
:09010900E32289828A83E4932237
:10011200BC000BBE0029EF8DF084FFADF022E4CCD1
:10012200F875F008EF2FFFEE33FEEC33FCEE9DEC9A
:10013200984005FCEE9DFE0FD5F0E9E4CEFD22EDE0
:10014200F8F5F0EE8420D21CFEADF075F008EF2F2A
:10015200FFED33FD4007985006D5F0F222C398FD1B
:050162000FD5F0EA22B8
:00000001FF
