:10000300AD07AC06ED30E003C38001D39280ECC3AF
:1000130013ED1330E003C38001D39281EDAE047876
:1000230002CEC313CE13D8F930E003C38001D392B9
:1000330082EDAE047803CEC313CE13D8F930E003B8
:10004300C38001D39283ECC4F854F0C8EDC4540FB9
:100053004830E003D38001C39284EDAE047805CE2B
:10006300C313CE13D8F930E003D38001C39285EDD7
:10007300AE047806CEC313CE13D8F930E003D38091
:1000830001C39286EDAE047807CEC313CE13D8F91D
:0A00930030E003D38001C3928722FE
:10009D00E4F508F509AF09AE081200037FF47E01FF
:1000AD001200C10509E50970020508C3E5089401B0
:0400BD0040E380DCC0
:1000C100D3EF9400EE940040147D7A7C00ED1D7016
:0D00D100011CED4C70F7EF1F70E61E80E380
:0100DE0022FF
:030000000200DF1C
:0C00DF00787FE4F6D8FD75810902009DD1
:00000001FF
