:10095900D3EF9400EE940040147D7A7C00ED1D7075
:0D096900011CED4C70F7EF1F70E61E80E3DF
:01097600225E
:090A2A00C2A4D2A5D2A4C2A522E7
:090A3300C2A4C2A5D2A4D2A522DE
:10097700E4FEC2A4C374079EFDEFA805088002C366
:0C09870013D8FC1392A5D2A40EBE08E603
:010993002241
:10099400E4FFFEC2A4D2A430A50D7480A80608808A
:0B09A40002C313D8FC42070EBE08E897
:0109AF002225
:1009CC00AB05120A2A1209771209DCAF0312097758
:0A09DC00C2A4D2A5D2A420A5FD22DA
:070A5700C2A4D2A5D2A42223
:1009E600AE07AC031209CCAF041209771209DC1268
:0909F6000A337F0A7E0002095950
:0209B000AC0792
:1009B2001209CC120A2AEC4401FF1209771209DC4F
:0909C200120994120A57120A33BB
:0109CB002209
:1009FF000102030B0405060C070809110A000A116E
:090A3C00C2B0C2B1C2B2C2B322C1
:090A4500D2B4D2B5D2B6D2B72268
:090A4E00A2B682B782B582B4227F
:10075400120A45120A3C120A4E40FBC2B3D2B0D26E
:10076400B1D2B2120A4E4004E4FD8031C2B2D2B01A
:10077400D2B1D2B3120A4E40047D018020C2B1D25C
:10078400B0D2B2D2B3120A4E40047D02800FC2B07E
:10079400D2B1D2B2D2B3120A4E40027D0320B704C2
:1007A400E4FE801320B6047E01800C20B5047E0292
:1007B400800520B4027E03ED25E025E024FFF582C8
:1007C400E43409F583E5822EF582E43583F583E488
:0207D40093FF91
:0107D6002200
:050A6F00000000000082
:0F0A0F008F80C2A1D2A2C2A27F027E000209592B
:050A6500C2A0020A0F0F
:050A6A00D2A0020A0FFA
:1008C5007F0F7E001209597F02120A657F38120ACE
:1008D500657F01120A657F0C120A657F06120A659B
:0C08E5007F80120A657F0A7E000209591C
:1008F1008B178A188919D2A0AB17AA18A919120344
:10090100B660130519E5197002051814F91203B63A
:07091100FF120A6A80E222D6
:0F07D7008F258E248D238C2212023F8E268F2792
:0407E6008E1A8F1BBD
:1007EA00781C7C007D007BFF7A0A796F7E007F058A
:1007FA00120390E51B451A70057F30020A6AE4F578
:10080A0021E51B451A602AAE1AAF1B7C007D0A122D
:10081A0003FCED2430FFAE210521741C2EF8A60737
:10082A00AE1AAF1B7C007D0A1203FC8E1A8F1B8046
:10083A00D01521C3E52164809480400E741C2521C3
:0A084A00F8E6FF120A6A052180E9B2
:010854002281
:100855001207D77F2E120A6AE4F528AC26AD27E4E5
:10086500120206A804A905AA06AB07AF25AE24AD5A
:1008750023AC22120006E4FBFA792078411200FB32
:0C0885001207D70528E528C3940340CFD4
:010891002244
:080892008B0C8A0D890E8D0FFD
:10089A007F40120A65E4F510E510C3950F5017ABB7
:1008AA000CAA0DA90E8510827583001203CFFF12C0
:0B08BA000A6A051080E27F80020A65D8
:10091800656469743A2020202020202000436C6FF1
:10092800636B3A20202020202000000000000000F7
:020938000000BD
:10093A008D178B18AB077D027FD01209E6AB177DA6
:0F094A00017FD01209E6AB18E4FD7FD00209E669
:060A5E00EFC454F02DFF6F
:010A6400226F
:10045F00E4F5157F80120A657BFF7A097918120877
:10046F00F1E50EC4540FF50FE50E540FF510E50D21
:10047F00C4540FF511E50D540FF512E50CC4540FCC
:10048F00F513E50C540FF514120A3C120A4E4003F3
:10049F000205287FC0120A65E50F2430FF120A6A91
:1004AF00E5102430FF120A6A7F3A120A6AE5112416
:1004BF0030FF120A6AE5122430FF120A6A7F3A12DD
:1004CF000A6AE5132430FF120A6AE5142430FF127A
:1004DF000A6A7F647E00120959E5156003B40106AC
:1004EF00E51524C08020E51564026005E515B40309
:1004FF0006E51524C1800FE51564046005E515B404
:10050F000508E51524C2FF120A65E4FF120A6A7F87
:10051F00647E0012095902049A120A3CE5157038DC
:10052F001207548F16120A4E50FBE516640B700318
:10053F00020640E516640C7003020640E516640AD5
:10054F007003020640E51664117003020640E516BB
:10055F00C3940350CB020639E5156401706CE50FA7
:10056F00640270381207548F16120A4E50FBE516AC
:10057F00640B7003020640E516640C70030206401C
:10058F00E516640A7003020640E516641170030253
:10059F000640E516C3940450CB0206391207548F58
:1005AF0016120A4E50FBE516640B7003020640E567
:1005BF0016640C607CE516640A6076E516641160BB
:1005CF0070E516C3940A50D48060E5156402600686
:1005DF00E5156404702B1207548F16120A4E50FB48
:1005EF00E516640B604BE516640C6045E516640A6E
:1005FF00603FE51664116039E516C3940650D78045
:10060F00291207548F16120A4E50FBE516640B6021
:10061F0020E516640C601AE516640A6014E516648A
:10062F0011600EE516C3940A50D7740F2515F8A65E
:10063F0016E516B40B0DE515B405037515FF051575
:10064F00020497E516B40C0CE51570037515061525
:10065F0015020497E516640A7022AD10AF0F120A47
:10066F005EC007AD12AF11120A5EAE07AD14AF1325
:10067F00120A5EAB07AD06D00702093AE516641100
:05068F00600302049766
:010694002243
:100695001208C57BFF7A0979327D08120892E4FBBE
:1006A500FDFF12093A7F80120A657BFF7A097925D9
:1006B5001208F1120A3C120A4E506B7D027FD012CD
:1006C50009B08F0B7D017FD01209B08F0AE4FD7F41
:1006D500D01209B08F097FC0120A65E50BC4540F0B
:1006E5002430FF120A6AE50B540F2430FF120A6A00
:1006F5007F3A120A6AE50AC4540F2430FF120A6AC7
:10070500E50A540F2430FF120A6A7F3A120A6AE595
:1007150009C4540F2430FF120A6AE509540F243026
:10072500FF120A6A80901207548F08120A4E50FB76
:10073500E508641160030206AA780C7C00FDFB7ACB
:0F074500007909FE7F0312039012045F0206AAD7
:100003000202ABE86480F8E933E83360110460F07E
:10001300ED33EC337009E8FCE9FDEAFEEBFF220463
:1000230060DED3EB9FEA9EE99DE8C2E78CF0C2F75E
:1000330095F0400CE8CCF8E9CDF9EACEFAEBCFFB2A
:1000430012027685D0F05804700320D5B3E804700B
:10005300075002B2D50202B592D5EC0460F7E4CCA6
:10006300C0E0C398F8603B94186008400DD0E0FBF3
:1000730002028DE4FBFAC9FC8028E830E406E4C9F7
:10008300FBE4CAFCE830E305E4C9CACBFCE8540747
:100093006010F8C3E913F9EA13FAEB13FBEC13FC52
:1000A300D8F130F52FC3E49CFCEF9BFFEE9AFEEDF5
:1000B30099FDD0E0FBEF4E4D4C701222DB030202A0
:1000C300B2EC2CFCEF33FFEE33FEED33FDED30E706
:1000D300EB02028DEF2BFFEE3AFEED39FDD0E0FB94
:1000E30050130BBB00030202B5ED13FDEE13FEEF3D
:0800F30013FFEC13FC02028D67
:1000FB00EC4D6011E8497017ED33EC3304600DE4FF
:10010B00FCFFFEFD22E933E8330470F80202AB1268
:10011B00027658046009E4CC248150062850090269
:10012B0002B52840030202B2C0E0EB4A7044B9802A
:10013B0006D0E0FB0202A1EF4E701CBD8008EBFF66
:10014B00EAFEE9FD80EBE98DF0A4FEE5F00201E4A7
:10015B00E9CDF9EAFEEBFFEF89F0A4FCE5F0CE89DF
:10016B00F0A42EFFE435F0CD89F0A42DFEE435F09C
:10017B008067EF4E7005BD80D780C3EF8BF0A4ACCA
:10018B00F0EE8BF0A42CFCE435F0F8EF8AF0A42C05
:10019B00E5F038FCE433CB8DF0A42CFCE5F03BF818
:1001AB00EE8AF0A42CFCE5F038F8E433CF89F0A408
:1001BB002CFCE5F038CF3400CE89F0A42FFFE5F00E
:1001CB003EFEE433C98DF0A42EFEE5F039CD8AF066
:1001DB00A42FFFE5F03EFEE43DFD33D0E0FB5007DE
:1001EB000BBB000F0202B5EC2CFCEF33FFEE33FE22
:0601FB00ED33FD02028D50
:1002010075F020800E75F010800575F0087D007E78
:10021100007F003392D530D503120451EC334010E6
:10022100EF33FFEE33FEED33FDEC33FCD5F0ED2281
:0E023100E5F0247EA2D513CC92E7CDCEFF22BD
:10023F00EDD2E7CD33EC3392D524814006E4FFFEB7
:10024F00FDFC22FCE4CFCECDCC24E0501174FF8016
:10025F00EDC3CC13CCCD13CDCE13CECF13CF0470B3
:07026F00F030D5DE0204515E
:10027600E9D2E7C933E833F892D5EDD2E7CD33ECCE
:0702860033FC5002B2D52247
:10028D00EC30E7100FBF000C0EBE00080DBD0004D2
:10029D000BEB6014A2D5EB13FCED92E7FD2274FF7E
:1002AD00FCFDFEFF22E480F8A2D574FF13FC7D80D7
:0302BD00E480EFEB
:03000000020A1ED3
:0C0A1E00787FE4F6D8FD7581280206956B
:1002C000E709F608DFFA8046E709F208DFFA803E20
:1002D00088828C83E709F0A3DFFA8032E309F6080D
:1002E000DFFA8078E309F208DFFA807088828C8375
:1002F000E309F0A3DFFA806489828A83E0A3F60829
:10030000DFFA805889828A83E0A3F208DFFA804C02
:1003100080D280FA80C680D4806980F280338010D9
:1003200080A680EA809A80A880DA80E280CA803342
:1003300089828A83ECFAE493A3C8C582C8CCC583BA
:10034000CCF0A3C8C582C8CCC583CCDFE9DEE7808A
:100350000D89828A83E493A3F608DFF9ECFAA9F009
:10036000EDFB2289828A83ECFAE0A3C8C582C8CC5F
:10037000C583CCF0A3C8C582C8CCC583CCDFEADE78
:10038000E880DB89828A83E493A3F208DFF980CCDA
:1003900088F0EF60010E4E60C388F0ED2402B404D3
:1003A0000050B9F582EB2402B4040050AF2323457A
:0603B0008223900310738C
:1003B600BB010689828A83E0225002E722BBFE0245
:0903C600E32289828A83E4932278
:1003CF00BB010CE58229F582E5833AF583E02250E3
:1003DF0006E92582F8E622BBFE06E92582F8E2222D
:0D03EF00E58229F582E5833AF583E4932247
:1003FC00BC000BBE0029EF8DF084FFADF022E4CCE5
:10040C00F875F008EF2FFFEE33FEEC33FCEE9DECAD
:10041C00984005FCEE9DFE0FD5F0E9E4CEFD22EDF3
:10042C00F8F5F0EE8420D21CFEADF075F008EF2F3D
:10043C00FFED33FD4007985006D5F0F222C398FD2E
:05044C000FD5F0EA22CB
:0E045100C3E49FFFE49EFEE49DFDE49CFC22BC
:00000001FF
