:10098400D3EF9400EE940040147D7A7C00ED1D704A
:0D099400011CED4C70F7EF1F70E61E80E3B4
:0109A1002233
:1008F100D3EF9400EE9400402174FFFDFCED1D70D8
:10090100011CED4C70F77CE87D09ED1D70011CEDBB
:0A0911004C70F7EF1F70D91E80D65E
:01091B0022B9
:090A5500C2A4D2A5D2A4C2A522BC
:090A5E00C2A4C2A5D2A4D2A522B3
:1009A200E4FEC2A4C374079EFDEFA805088002C33B
:0C09B20013D8FC1392A5D2A40EBE08E6D8
:0109BE002216
:1009BF00E4FFFEC2A4D2A430A50D7480A80608805F
:0B09CF0002C313D8FC42070EBE08E86C
:0109DA0022FA
:1009F700AB05120A551209A2120A07AF031209A280
:0A0A0700C2A4D2A5D2A420A5FD22AE
:070A8200C2A4D2A5D2A422F8
:100A1100AE07AC031209F7AF041209A2120A0712BA
:090A21000A5E7F0A7E00020984CE
:0209DB00AC0767
:1009DD001209F7120A55EC4401FF1209A2120A0777
:0909ED001209BF120A82120A5E0F
:0109F60022DE
:100A2A000102030B0405060C070809110A000A1142
:090A6700C2B0C2B1C2B2C2B32296
:090A7000D2B4D2B5D2B6D2B7223D
:090A7900A2B682B782B582B42254
:10075400120A70120A67120A7940FBC2B3D2B0D2ED
:10076400B1D2B2120A794004E4FD8031C2B2D2B0EF
:10077400D2B1D2B3120A7940047D018020C2B1D231
:10078400B0D2B2D2B3120A7940047D02800FC2B053
:10079400D2B1D2B2D2B3120A7940027D0320B70497
:1007A400E4FE801320B6047E01800C20B5047E0292
:1007B400800520B4027E03ED25E025E0242AF5829D
:1007C400E4340AF583E5822EF582E43583F583E487
:0207D40093FF91
:0107D6002200
:050A9A00000000000057
:0F0A3A008F80C2A1D2A2C2A27F027E00020984D5
:050A9000C2A0020A3AB9
:050A9500D2A0020A3AA4
:1008C5007F0F7E001209847F02120A907F38120A78
:1008D500907F01120A907F0C120A907F06120A90EF
:0C08E5007F80120A907F0A7E00020984C6
:10091C008B178A188919D2A0AB17AA18A919120318
:10092C00B660130519E5197002051814F91203B60F
:07093C00FF120A9580E22280
:0F07D7008F258E248D238C2212023F8E268F2792
:0407E6008E1A8F1BBD
:1007EA00781C7C007D007BFF7A0A799A7E007F055F
:1007FA00120390E51B451A70057F30020A95E4F54D
:10080A0021E51B451A602AAE1AAF1B7C007D0A122D
:10081A0003FCED2430FFAE210521741C2EF8A60737
:10082A00AE1AAF1B7C007D0A1203FC8E1A8F1B8046
:10083A00D01521C3E52164809480400E741C2521C3
:0A084A00F8E6FF120A95052180E987
:010854002281
:100855001207D77F2E120A95E4F528AC26AD27E4BA
:10086500120206A804A905AA06AB07AF25AE24AD5A
:1008750023AC22120006E4FBFA792078411200FB32
:0C0885001207D70528E528C3940340CFD4
:010891002244
:080892008B0C8A0D890E8D0FFD
:10089A007F40120A90E4F510E510C3950F5017AB8C
:1008AA000CAA0DA90E8510827583001203CFFF12C0
:0B08BA000A95051080E27F80020A9082
:10094300656469743A2020202020202000436C6FC6
:10095300636B3A20202020202000000000000000CC
:02096300000092
:100965008D178B18AB077D027FD0120A11AB177D4F
:0F097500017FD0120A11AB18E4FD7FD0020A11E6
:060A8900EFC454F02DFF44
:010A8F002244
:10045F00E4F5157F80120A907BFF7A097943120920
:10046F001CE50EC4540FF50FE50E540FF510E50DF6
:10047F00C4540FF511E50D540FF512E50CC4540FCC
:10048F00F513E50C540FF514120A67120A7940039D
:10049F000205287FC0120A90E50F2430FF120A953B
:1004AF00E5102430FF120A957F3A120A95E51124C0
:1004BF0030FF120A95E5122430FF120A957F3A1287
:1004CF000A95E5132430FF120A95E5142430FF1224
:1004DF000A957F647E00120984E5156003B4010656
:1004EF00E51524C08020E51564026005E515B40309
:1004FF0006E51524C1800FE51564046005E515B404
:10050F000508E51524C2FF120A90E4FF120A957F31
:10051F00647E0012098402049A120A67E515703886
:10052F001207548F16120A7950FBE516640B7003ED
:10053F00020640E516640C7003020640E516640AD5
:10054F007003020640E51664117003020640E516BB
:10055F00C3940350CB020639E5156401706CE50FA7
:10056F00640270381207548F16120A7950FBE51681
:10057F00640B7003020640E516640C70030206401C
:10058F00E516640A7003020640E516641170030253
:10059F000640E516C3940450CB0206391207548F58
:1005AF0016120A7950FBE516640B7003020640E53C
:1005BF0016640C607CE516640A6076E516641160BB
:1005CF0070E516C3940A50D48060E5156402600686
:1005DF00E5156404702B1207548F16120A7950FB1D
:1005EF00E516640B604BE516640C6045E516640A6E
:1005FF00603FE51664116039E516C3940650D78045
:10060F00291207548F16120A7950FBE516640B60F6
:10061F0020E516640C601AE516640A6014E516648A
:10062F0011600EE516C3940A50D7740F2515F8A65E
:10063F0016E516B40B0DE515B405037515FF051575
:10064F00020497E516B40C0CE51570037515061525
:10065F0015020497E516640A7022AD10AF0F120A47
:10066F0089C007AD12AF11120A89AE07AD14AF13CF
:10067F00120A89AB07AD06D007020965E5166411AA
:05068F00600302049766
:010694002243
:100695001208C57BFF7A09795D7D08120892E4FB93
:1006A500FDFF1209657F80120A907BFF7A09795058
:1006B50012091C120A67120A79506B7D027FD0124B
:1006C50009DB8F0B7D017FD01209DB8F0AE4FD7FEB
:1006D500D01209DB8F097FC0120A90E50BC4540FB5
:1006E5002430FF120A95E50B540F2430FF120A95AA
:1006F5007F3A120A95E50AC4540F2430FF120A9571
:10070500E50A540F2430FF120A957F3A120A95E53F
:1007150009C4540F2430FF120A95E509540F2430FB
:10072500FF120A9580901207548F08120A7950FB20
:10073500E508641160030206AA780C7C00FDFB7ACB
:0F074500007909FE7F0312039012045F0206AAD7
:100003000202ABE86480F8E933E83360110460F07E
:10001300ED33EC337009E8FCE9FDEAFEEBFF220463
:1000230060DED3EB9FEA9EE99DE8C2E78CF0C2F75E
:1000330095F0400CE8CCF8E9CDF9EACEFAEBCFFB2A
:1000430012027685D0F05804700320D5B3E804700B
:10005300075002B2D50202B592D5EC0460F7E4CCA6
:10006300C0E0C398F8603B94186008400DD0E0FBF3
:1000730002028DE4FBFAC9FC8028E830E406E4C9F7
:10008300FBE4CAFCE830E305E4C9CACBFCE8540747
:100093006010F8C3E913F9EA13FAEB13FBEC13FC52
:1000A300D8F130F52FC3E49CFCEF9BFFEE9AFEEDF5
:1000B30099FDD0E0FBEF4E4D4C701222DB030202A0
:1000C300B2EC2CFCEF33FFEE33FEED33FDED30E706
:1000D300EB02028DEF2BFFEE3AFEED39FDD0E0FB94
:1000E30050130BBB00030202B5ED13FDEE13FEEF3D
:0800F30013FFEC13FC02028D67
:1000FB00EC4D6011E8497017ED33EC3304600DE4FF
:10010B00FCFFFEFD22E933E8330470F80202AB1268
:10011B00027658046009E4CC248150062850090269
:10012B0002B52840030202B2C0E0EB4A7044B9802A
:10013B0006D0E0FB0202A1EF4E701CBD8008EBFF66
:10014B00EAFEE9FD80EBE98DF0A4FEE5F00201E4A7
:10015B00E9CDF9EAFEEBFFEF89F0A4FCE5F0CE89DF
:10016B00F0A42EFFE435F0CD89F0A42DFEE435F09C
:10017B008067EF4E7005BD80D780C3EF8BF0A4ACCA
:10018B00F0EE8BF0A42CFCE435F0F8EF8AF0A42C05
:10019B00E5F038FCE433CB8DF0A42CFCE5F03BF818
:1001AB00EE8AF0A42CFCE5F038F8E433CF89F0A408
:1001BB002CFCE5F038CF3400CE89F0A42FFFE5F00E
:1001CB003EFEE433C98DF0A42EFEE5F039CD8AF066
:1001DB00A42FFFE5F03EFEE43DFD33D0E0FB5007DE
:1001EB000BBB000F0202B5EC2CFCEF33FFEE33FE22
:0601FB00ED33FD02028D50
:1002010075F020800E75F010800575F0087D007E78
:10021100007F003392D530D503120451EC334010E6
:10022100EF33FFEE33FEED33FDEC33FCD5F0ED2281
:0E023100E5F0247EA2D513CC92E7CDCEFF22BD
:10023F00EDD2E7CD33EC3392D524814006E4FFFEB7
:10024F00FDFC22FCE4CFCECDCC24E0501174FF8016
:10025F00EDC3CC13CCCD13CDCE13CECF13CF0470B3
:07026F00F030D5DE0204515E
:10027600E9D2E7C933E833F892D5EDD2E7CD33ECCE
:0702860033FC5002B2D52247
:10028D00EC30E7100FBF000C0EBE00080DBD0004D2
:10029D000BEB6014A2D5EB13FCED92E7FD2274FF7E
:1002AD00FCFDFEFF22E480F8A2D574FF13FC7D80D7
:0302BD00E480EFEB
:03000000020A49A8
:0C0A4900787FE4F6D8FD75812802069540
:1002C000E709F608DFFA8046E709F208DFFA803E20
:1002D00088828C83E709F0A3DFFA8032E309F6080D
:1002E000DFFA8078E309F208DFFA807088828C8375
:1002F000E309F0A3DFFA806489828A83E0A3F60829
:10030000DFFA805889828A83E0A3F208DFFA804C02
:1003100080D280FA80C680D4806980F280338010D9
:1003200080A680EA809A80A880DA80E280CA803342
:1003300089828A83ECFAE493A3C8C582C8CCC583BA
:10034000CCF0A3C8C582C8CCC583CCDFE9DEE7808A
:100350000D89828A83E493A3F608DFF9ECFAA9F009
:10036000EDFB2289828A83ECFAE0A3C8C582C8CC5F
:10037000C583CCF0A3C8C582C8CCC583CCDFEADE78
:10038000E880DB89828A83E493A3F208DFF980CCDA
:1003900088F0EF60010E4E60C388F0ED2402B404D3
:1003A0000050B9F582EB2402B4040050AF2323457A
:0603B0008223900310738C
:1003B600BB010689828A83E0225002E722BBFE0245
:0903C600E32289828A83E4932278
:1003CF00BB010CE58229F582E5833AF583E02250E3
:1003DF0006E92582F8E622BBFE06E92582F8E2222D
:0D03EF00E58229F582E5833AF583E4932247
:1003FC00BC000BBE0029EF8DF084FFADF022E4CCE5
:10040C00F875F008EF2FFFEE33FEEC33FCEE9DECAD
:10041C00984005FCEE9DFE0FD5F0E9E4CEFD22EDF3
:10042C00F8F5F0EE8420D21CFEADF075F008EF2F3D
:10043C00FFED33FD4007985006D5F0F222C398FD2E
:05044C000FD5F0EA22CB
:0E045100C3E49FFFE49EFEE49DFDE49CFC22BC
:00000001FF
