:03002000020DB816
:10033000FFFFFFFFFFFFFFFFE7C3C3E7E7FFE7FFA5
:10034000999999FFFFFFFFFFC9C980C980C9C9FFFB
:10035000F7C1F5C1D7C1F7FFFF9CCCE7F3999CFF2C
:10036000E3C9E391C4CC91FFE7E7F3FFFFFFFFFF91
:10037000CFE7F3F3F3E7CFFFF3E7CFCFCFE7F3FF19
:10038000FF99C380C399FFFFFFE7E781E7E7FFFF1E
:10039000FFFFFFFFE7E7F3FFFFFFFF80FFFFFFFF28
:1003A000FFFFFFFFFFF3F3FF9FCFE7F3F9FCFEFF33
:1003B000C19C8C849098C1FFE7E3E7E7E7E781FF02
:1003C000C3999FC7F39981FFC3999FC79F99C3FFA3
:1003D000C7C3C9CC80CF87FF81F9C19F9F99C3FF55
:1003E000C7F3F9C19999C3FF81999FCFE7E7E7FF69
:1003F000C39999C39999C3FFC39999839FCFE3FF89
:10040000FFF3F3FFFFF3F3FFF3F3FFFFF3F3F9FF62
:10041000E7F3F9FCF9F3E7FFFFFF80FFFF80FFFF41
:10042000F9F3E7CFE7F3F9FFE1CCCFE7F3FFF3FF11
:10043000C19C848484FCE1FFE7C39999819999FF69
:10044000C09999C19999C0FFC399FCFCFC99C3FF5D
:10045000E0C9999999C9E0FF80B9E9E1E9B980FF5C
:1004600080B9E9E1E9F9F0FFC399FCFC8C9981FFBF
:1004700099999981999999FFC3E7E7E7E7E7C3FF5E
:1004800087CFCFCFCCCCE1FF9899C9E1C99998FF2C
:10049000F0F9F9F9B99980FF9C888080949C9CFFC1
:1004A0009C9890848C9C9CFFE3C99C9C9CC9E3FF16
:1004B000C09999C1F9F9F0FFC399999989C38FFF40
:1004C000C09999C1899998FFC399F1E38F99C3FFA6
:1004D00081A5E7E7E7E7C3FF999999999999C3FF40
:1004E0009999999999C3E7FF9C9C9C9480889CFF5B
:1004F0009CC9E3F7E3C99CFF999999C3E7E7C3FF58
:10050000809CCEE7B39980FFE1F9F9F9F9F9E1FFB1
:10051000FCF9F3E7CF9FBFFFE1E7E7E7E7E7E1FF9C
:10052000F7E3C99CFFFFFFFFFFFFFFFFFFFFFF8017
:10053000F3F3E7FFFFFFFFFFFFFFE1CFC1CC91FF28
:10054000F8F9F9C19999C4FFFFFFE1CCFCCCE1FFB8
:10055000C7CFCFC1CCCC91FFFFFFE1CCC0FCE1FF06
:10056000E3C9F9F0F9F9F0FFFFFFE1CCCCC0CFE12E
:10057000F8F9C991999998FFF3FFF1F3F3F3E1FFCB
:10058000CFFFCFCFCFCCCCE1F8F999C9E1C998FF23
:10059000F1F3F3F3F3F3E1FFFFFFC98080949CFFD5
:1005A000FFFFE0CCCCCCCCFFFFFFE1CCCCCCE1FF1B
:1005B000FFFFC19999C1F9F1FFFF91CCCCC1CF8761
:1005C000FFFFC49199F9F0FFFFFFC1FCE1CFE0FF0D
:1005D000F7F3C1F3F3D3E7FFFFFFCCCCCCCC91FF13
:1005E000FFFFCCCCCCE1F3FFFFFF9C948080C9FFE0
:1005F000FFFF9CC9E3C99CFFFFFFCCCCCCC0CFE779
:10060000FFFFC0E6F3D9C0FFC7F3F3F8F3F3C7FF6A
:10061000E7E7E7FFE7E7E7FFF8F3F3C7F3F3F8FFF0
:1006200091C4FFFFFFFFFFFF00000000000000007B
:0809AB008B3D8A3E893F8D401F
:1009B300E4F541F542F543F544C3E5449540E54389
:1009C30094004003020ACAE4F541F542E4F580AB22
:1009D3003DAA3EA93F12082E75F008A42430F582E3
:1009E300E5F03402F583E5822542F582E58335415E
:1009F300F583E493FF7D017C0012139CAB3DAA3E7B
:100A0300A93F90000112084775F008A42430F5822D
:100A1300E5F03402F583E5822542F582E58335412D
:100A2300F583E493FF7D027C0012139CAB3DAA3E49
:100A3300A93F90000212084775F008A42430F582FC
:100A4300E5F03402F583E5822542F582E5833541FD
:100A5300F583E493FF7D037C0012139CAB3DAA3E18
:100A6300A93F90000312084775F008A42430F582CB
:100A7300E5F03402F583E5822542F582E5833541CD
:100A8300F583E493FF7D047C0012139CAF42740151
:100A9300A807088002C333D8FCF5807F287E0012A4
:100AA30014460542E54270020541C39408E54194AA
:100AB3000050030209CFE4F5800544E544600302D6
:070AC30009BC05430209BC58
:010ACA002209
:06104E008B3C8A3D893E47
:1010540012082EF540E4F53FAB3CAA3DA93E12141C
:101064005EEF24FFFFEE34FFFEC3E53F9FEE648096
:10107400F8748098501D853F82758300A3AB3CAA09
:101084003DA93E120847853F827583001208740506
:101094003F80C5AB3CAA3DA93E853F82758300E5F0
:1010A4004012087478217C007D00AB3CAA3DA93E27
:0310B400020962CC
:10124300E4F53D7B007A00790812145EEF24FFFF7A
:10125300EE34FFFEC3E53D9FEE6480F87480985042
:10126300127409253DF8E6FF7408253DF8A6070525
:0A1273003D80D07408253DF8E4F634
:01127D00224E
:10000300D3EF9400EE94004013E4FD0DBDFAFCE43D
:0C001300FD0DBD87FCEF1F70E71E80E4B0
:01001F0022BE
:10144600E4FDFCC3ED9FEE6480F8EC6480985007E1
:071456000DBD00010C80EC4C
:01145D00226C
:0313F900013A00B6
:030023000211F8CF
:1011F800C0E0C0D075D000C000C007309906D20347
:10120800C299802E30982B85993AE53AB4240BD2AE
:10121800027421253BF876008016E53AB42104D201
:1012280000800D20010AAF3B053B74212FF8A63A38
:0B123800C298D007D000D0D0D0E03228
:0F147300758920759850758DFDD28E75A89022C1
:08149400C2038F993003FD2211
:1012E3008B3C8A3D893EAB3CAA3DA93E12082E6049
:1012F30013053EE53E7002053D14F912082EFF1258
:05130300149480E222B9
:101308007E07C3EE64809480401AEFA80608800226
:10131800C313D8FC30E003D38001C392A0C2A11E3E
:04132800D2A180DEF0
:01132C00229E
:10132D007E07C3EE64809480401AEFA80608800201
:10133D00C313D8FC30E003D38001C392A2C2A31E15
:04134D00D2A380DEC9
:011351002279
:101352007E07C3EE64809480401AEFA806088002DC
:10136200C313D8FC30E003D38001C392A4C2A51EEC
:04137200D2A580DEA2
:011376002254
:101377007E07C3EE64809480401AEFA806088002B7
:10138700C313D8FC30E003D38001C392A6C2A71EC3
:04139700D2A780DE7B
:01139B00222F
:10139C00ED64014C7003021308ED64024C700302FF
:1013AC00132DED64034C7003021352ED64044C7066
:0513BC0003121377226B
:100026000D0A2A2A2A2A2A2A204D454E55202A2AEE
:100036002A2A2A2A0D0A00312920464958454420F1
:10004600535452494E47200D0A003229204649583A
:10005600454420535452494E47205749544820425C
:100066004C494E4B494E470D0A00332920535452F2
:10007600494E472057495448205343524F4C4C4908
:100086004E470D0A0034292054494D452044495312
:10009600504C4159200D0A00352920525443204422
:1000A6004953504C41592057495448205343524FC5
:1000B6004C4C494E470D0A003629205445585420C9
:1000C60045444954204D4F4445200D0A0037292008
:1000D60054494D452045444954204D4F4445200D33
:1000E6000A0038292045584954200D0A00576169ED
:1000F60074696E6720666F7220692F70200D0A0082
:1001060057726F6E672073656C656374696F6E0DE9
:100116000A000D0A312E4649584544205445585484
:1001260020286F6E6C792034206368617261637475
:10013600657273202B2024290D0A00322E5445584F
:10014600542057495448205343524F4C4C494E472C
:1001560020286F6E6C79203230206368617261638B
:1001660074657273202B2024290D0A000D0A456E32
:10017600746572206E657720737472696E672028C5
:100186007465726D696E6174652077697468202480
:10019600293A0D0A000D0A656E74657220666F7243
:1001A6002065646974696E672074696D652664618B
:1001B6007465206173207065722074686520666FAF
:1001C600726D61746520676976656E2062656C6F15
:1001D600770D0A002020202053533A4D4D3A4848C7
:1001E600204441592044442F4D4D2F5959240D0A7E
:1001F6000065783A2032323A31303A30392030319F
:100206002032372F30322F3135240D0A004E6F74CD
:10021600653A204441593A2030312D53554E2C3001
:10022600322D4D4F4E2C30332D5455452C30342D18
:100236005745442C30352D5448552C30362D4652D2
:10024600492C30372D5341540D0A00456E7472798E
:10025600206C696D69747320697320617320666F01
:100266006C6C6F77730D0A0028736563202D203040
:10027600302D35392920286D696E202D203030200B
:100286002D203539292028686F7572202D203030B1
:10029600202D203233290D0A0028646179202D2073
:1002A60030312D303729202864617465202D2030A7
:1002B60031202D2033312920286D6F6E7468202D52
:1002C600203031202D203132292028796561722095
:1002D6002D203030202D203939290D0A000D0A0035
:1002E6000D0A2A2A2A2052554E204D4F4445202ACF
:1002F6002A2A0D0A002A2A2A205052455353202121
:1003060020544F20455849542052554E202620450A
:100316004E5445522045444954204D4F4445202AC9
:0A0326002A2A0D0A002020202000E2
:10110A007BFF7A0079261212E37BFF7A00793D127F
:10111A0012E37BFF7A0079501212E37BFF7A00799F
:10112A00701212E37BFF7A00798B1212E37BFF7A4B
:10113A0000799E1212E37BFF7A0079BE1212E37BDA
:10114A00FF7A0079D31212E37BFF7A0079E8021260
:01115A00E3B1
:100EF9007BFF7A0079F31212E3D201E4F53AE53A7D
:100F090060FCE53AB43105751C018026E53AB43236
:100F190005751C02801CE53AB43305751C03801263
:100F2900E53AB43405751C048008E53AB4350C7506
:100F39001C05AB1C7D307FA002142DE53AB4361197
:100F4900120FE47B007A007921A204E433FD021137
:100F59005BE53AB43703020630E53A643860097B49
:090F6900FF7A0179061212E3225D
:100FE400C202C2017BFF7A0179181212E37BFF7AF5
:100FF4000179411212E37BFF7A0079F31212E3E4E0
:10100400F53AE53A643260047F0180027F00E53AF4
:10101400643160047E0180027E00EE5F70E4E53A94
:10102400B43104C2048007E53AB43202D204E4F5D0
:101034003BFE7F19FDFB7A00792112097F7BFF7A41
:0A1044000179721212E33002FD225E
:10063000C200C2017BFF7A01799B1212E37BFF7A31
:100640000179DA1212E37BFF7A0179F71212E37B68
:10065000FF7A0279131212E37BFF7A0279511212A8
:10066000E37BFF7A02796E1212E37BFF7A02799FB5
:100670001212E3E4F53BFE7F19FDFB7A00792112AB
:10068000097FC2023002FD7BFF7A0279E31212E396
:10069000E52124D0F53AE52224D0FFE53A75F00AA9
:1006A000A42FF53AC394004022E53AD3943B501B63
:1006B000E53A75F00A84C454F0FFE53A75F00A840F
:1006C000EF25F0FBE4FD7FD012142DE52424D0F5B6
:1006D0003AE52524D0FFE53A75F00AA42FF53AC390
:1006E00094004022E53AD3943B501BE53A75F00A5A
:1006F00084C454F0FFE53A75F00A84EF25F0FB7DE1
:10070000017FD012142DE52724D0F53AE52824D016
:10071000FFE53A75F00AA42FF53AC394004022E5AC
:100720003AD39417501BE53A75F00A84C454F0FF8D
:10073000E53A75F00A84EF25F0FB7D027FD01214B4
:100740002DE52A24D0F53AE52B24D0FFE53A75F0C3
:100750000AA42FF53AC394014022E53AD3940750F6
:100760001BE53A75F00A84C454F0FFE53A75F00AC7
:1007700084EF25F0FB7D037FD012142DE52D24D0CE
:10078000F53AE52E24D0FFE53A75F00AA42FF53AA4
:10079000C394014022E53AD3941F501BE53A75F00B
:1007A0000A84C454F0FFE53A75F00A84EF25F0FBA3
:1007B0007D047FD012142DE53024D0F53AE53124A4
:1007C000D0FFE53A75F00AA42FF53AC39401402210
:1007D000E53AD3940C501BE53A75F00A84C454F002
:1007E000FFE53A75F00A84EF25F0FB7D057FD01216
:1007F000142DE53324D0F53AE53424D0FFE53A75DD
:10080000F00AA42FF53AC394004022E53AD394634A
:10081000501BE53A75F00A84C454F0FFE53A75F0D0
:0D0820000A84EF25F0FB7D067FD012142D19
:01082D0022A8
:100DB800121473E4FBFD7FD012142DC2017BFF7A5D
:100DC8000279E61212E37BFF7A0279FB1212E37DC5
:100DD800307FA01213DD8F1CE51CB402047F018054
:100DE800027F00E51CB401047E0180027E00EE4F04
:100DF8006004E4FF8007E51CB403057F011211AA13
:100E0800E51CB401087B007A0079218016E51CB442
:100E180002187B007A0079217D321209AB7BFF7AB8
:100E280003792B7D321209AB802DE51CB403167BA8
:100E3800007A0079217D321209AB7B007A00792192
:100E480012104E8012E51CB40405120F728008E5DA
:100E58001CB4050312127E3000A6C20012110A1239
:050E68000EF9020DC3AC
:09148200C2B7D2B6D2B7C2B6223D
:09148B00C2B7C2B6D2B7D2B62234
:10141300A9051214821212B8121423AF011212B8C2
:0A142300C2B7D2B6D2B720B6FD2240
:07149C00C2B7D2B6D2B7229D
:0212B800AD0780
:1012BA00E4FCC2B774807E00A804088006CEA2E7C8
:1012CA0013CE13D8F8FFEDFBEF5B6003D38001C3A5
:0812DA0092B6D2B70CBC08DA91
:0112E20022E9
:1013C100E4FFFEC2B7D2B730B60D7480A80608801C
:0B13D10002C313D8FC42070EBE08E860
:0113DC0022EE
:0213DD00AA075D
:1013DF00121413121482EA4401FF1212B8121423CA
:0913EF001213C112149C12148B9C
:0113F80022D2
:10142D00AE07AA03121413AF021212B8121423122C
:09143D00148B7F0A7E00020003FB
:1010B700200053554E444159004D4F4E444159006D
:1010C70054554553444159005745444E45534441AF
:1010D70059005448555253444159004652494441D6
:1010E7005900534154555244415900FF10B7FF105E
:1010F700B9FF10C0FF10C7FF10CFFF10D9FF10E2D4
:03110700FF10E9ED
:1013FC0014082000000000000000000000000000A5
:06140C00000000000000DA
:100ACB00E4F53DAF3D053D74082FF87620AF3D05AD
:100ADB003D74082FF87620AF3D053D74082FF8764E
:100AEB0020AF3D053D74082FF87654AF3D053D749E
:100AFB00082FF87649AF3D053D74082FF8764DAFBA
:100B0B003D053D74082FF87645AF3D053D74082F24
:100B1B00F876207D027FD01213DDEFC4540F243002
:100B2B00FFAE3D053D74082EF8A6077D027FD0125F
:100B3B0013DDEF540F2430FFAE3D053D74082EF846
:100B4B00A607AF3D053D74082FF8763A7D017FD09F
:100B5B001213DDEFC4540F2430FFAE3D053D740876
:100B6B002EF8A6077D017FD01213DDEF540F243032
:100B7B00FFAE3D053D74082EF8A607AF3D053D744D
:100B8B00082FF8763AE4FD7FD01213DDEFC4540F33
:100B9B002430FFAE3D053D74082EF8A607E4FD7F1B
:100BAB00D01213DDEF540F2430FFAE3D053D74081A
:100BBB002EF8A607AF3D053D74082FF87620AF3D04
:100BCB00053D74082FF87620AF3D053D74082FF8CE
:090BDB0076207408253DF8E4F6CB
:010BE40022EE
:100BE500E4F53DAF3D053D74082FF87620AF3D0592
:100BF5003D74082FF87620AF3D053D74082FF87633
:100C050020AF3D053D74082FF87644AF3D053D7492
:100C1500082FF87641AF3D053D74082FF87654AF9F
:100C25003D053D74082FF87645AF3D053D74082F09
:100C3500F876207D047FD01213DDEFC4540F2430E5
:100C4500FFAE3D053D74082EF8A6077D047FD01242
:100C550013DDEF540F2430FFAE3D053D74082EF82B
:100C6500A607AF3D053D74082FF8762F7D057FD08B
:100C75001213DDEFC4540F2430FFAE3D053D74085B
:100C85002EF8A6077D057FD01213DDEF540F243013
:100C9500FFAE3D053D74082EF8A607AF3D053D7432
:100CA500082FF8762F7D067FD01213DDEFC4540F81
:100CB5002430FFAE3D053D74082EF8A6077D067F5E
:100CC500D01213DDEF540F2430FFAE3D053D7408FF
:100CD5002EF8A607AF3D053D74082FF87620AF3DE9
:100CE500053D74082FF87620AF3D053D74082FF8B3
:090CF50076207408253DF8E4F6B0
:010CFE0022D3
:100CFF00E4F540AF40054074082FF87620AF40056B
:100D0F004074082FF87620AF40054074082FF8760E
:100D1F0020AF40054074082FF87644AF400540746B
:100D2F00082FF87641AF40054074082FF87659AF79
:100D3F0040054074082FF876207D037FD01213DD15
:100D4F00EF75F003A424F2F582E43410F583E493F5
:100D5F00FB740193FA7402938B3D8A3EF53FAB3DD2
:100D6F00AA3EA93F12082E601A053FE53F70020503
:100D7F003E14F912082EFFAE40054074082EF8A657
:100D8F000780DBAF40054074082FF87620AF400591
:100D9F004074082FF87620AF40054074082FF8767E
:080DAF002074082540F8E4F669
:010DB7002219
:10127E00E53C7005120ACB8012E53CB40F05120B4B
:10128E00E58008E53CB41E03120CFF7B007A007962
:10129E00087D141209AB121243053CE53CD3942B86
:0912AE004004E4F53C223000C7C5
:0112B7002214
:100F7200E4F53C7D017FD01213DDEFC4540F243021
:100F8200FFAE3C053C74082EF8A6077D017FD01207
:100F920013DDEF540F2430FFAE3C053C74082EF8ED
:100FA200A607E4FD7FD01213DDEFC4540F2430FFF7
:100FB200AE3C053C74082EF8A607E4FD7FD0121360
:100FC200DDEF540F2430FFAE3C053C74082EF8A62A
:100FD200077408253CF8E4F6FB7A0079087D1402D0
:020FE20009AB59
:0211AA008F3C78
:1011AC00E4F53DFE7F19FDFB7A00792112097FE5FC
:1011BC003C7004F53D8008E53CB40103753D05AD7C
:1011CC003D7FA01213DDEF601BE53C7007742125F9
:1011DC003DF8A607E53CB40107741C253DF8A607AD
:0B11EC00053D80DB7421253DF8E4F692
:0111F70022D5
:08115B008B3C8A3D893E8D3F6B
:10116300E4F540E53F7004F5408008E53FB4010332
:10117300754005AB3CAA3DA93E12082E6020053EF2
:10118300E53E7002053D14F912082EFBAD407FA029
:1011930012142D0540E53F70DAE540B404D5E4FBB5
:0711A300AD407FA002142DF6
:03000000020E6D80
:0C0E6D00787FE4F6D8FD758144020EB4D5
:10082E00BB010689828A83E0225002E722BBFE02C8
:09083E00E32289828A83E49322FB
:10084700BB010CE58229F582E5833AF583E0225066
:1008570006E92582F8E622BBFE06E92582F8E222B0
:0D086700E58229F582E5833AF583E49322CA
:10087400F8BB010DE58229F582E5833AF583E8F0BA
:10088400225006E92582C8F622BBFE05E92582C866
:02089400F2224E
:10089600E709F60870FA8046E709F20870FA803E22
:1008A60088828C83E709F0A370FA807EE309F60854
:1008B60070FA8076E309F20870FA806E88828C837B
:1008C600E309F0A370FA806289828A83E0A3F608BE
:1008D60070FA805689828A83E0A3F20870FA804A09
:1008E60080D280FA80C680D4806580F28031801004
:1008F60080A680EA809A80A880DA80E280CA803169
:1009060089828A83ECFAE493A3C8C582C8CCC583DE
:10091600CCF0A3C8C582C8CCC583CC70E9800D894C
:10092600828A83E493A3F60870F9ECFAA9F0EDFB4A
:100936002289828A83ECFAE0A3C8C582C8CCC58323
:10094600CCF0A3C8C582C8CCC583CC70EA80DD894B
:10095600828A83E493A3F20870F980CE88F0ED24AE
:1009660002B4040050C4F582EB2402B4040050BA69
:0909760023234582239008E67357
:10145E00E4FFFE12082E600C0FEF70010E09E9700A
:05146E00F20A80EF22EC
:10097F00EF4E6012EF60010EEDBB010B89828A838F
:10098F00F0A3DFFCDEFA2289F05007F709DFFCA99C
:0C099F00F022BBFEFCF309DFFCA9F022F3
:100E7900020020E493A3F8E493A34003F68001F26F
:100E890008DFF48029E493A3F85407240CC8C3337A
:100E9900C4540F4420C8834004F456800146F6DF49
:100EA900E4800B01020408102040809013F9E47ECD
:100EB900019360BCA3FF543F30E509541FFEE4933E
:100EC900A360010ECF54C025E060A840B8E493A305
:100ED900FAE493A3F8E493A3C8C582C8CAC583CA30
:100EE900F0A3C8C582C8CAC583CADFE9DEE780BEE8
:0114120000D9
:00000001FF
